:100000000C945D000C9485000C9485000C94850084
:100010000C9485000C9485000C9485000C9485004C
:100020000C9485000C94AC070C9485000C94B606D7
:100030000C94DF050C9485000C9485000C948500CD
:100040000C9467040C9485000C94440A0C941E0ACA
:100050000C9485000C945A080C9485000C9485002F
:100060000C94B1040C94850000000008000201000B
:100070000003040700000000000000000000000072
:10008000250028002B0000000000240027002A0083
:10009000040404040404040402020202020203032E
:1000A0000303030301020408102040800102040836
:1000B0001020010204081020CE0A11241FBECFEF29
:1000C000D8E0DEBFCDBF11E0A0E0B1E0E0E3FCE1AD
:1000D00002C005900D92AE3CB107D9F727E0AEEC17
:1000E000B1E001C01D92AF32B207E1F710E0CDE5FB
:1000F000D0E004C02197FE010E94F60DCC35D10757
:10010000C9F70E94070B0C94160E0C94000085EDA5
:100110008093BC008091BC0084FDFCCF10925806F7
:10012000089540910202262F30E0240F311D213224
:100130003105DCF4209158062430C9F4FC0180E03C
:1001400090E0861758F4309102022191DC01A05210
:10015000BE4FA30FB11D2C930196F3CF80910202E5
:10016000680F6093020280E0089581E0089582E0C4
:10017000089508958FEF9FEF08958FEF9FEF0895F3
:100180008091DF0190E09195819591090895CF923A
:10019000DF92EF92FF920F931F93CF93DF937C0137
:1001A000262F972F8A0180915906882391F0C62F18
:1001B000D72F6E01C40ED51ECC15DD0571F06991E7
:1001C000D701ED91FC910190F081E02DC7010995D7
:1001D000F3CF642F822F0E949100C801DF91CF914D
:1001E0001F910F91FF90EF90DF90CF900895CF93E4
:1001F000DF931F92CDB7DEB7698320915906222382
:10020000D1F020917B06203240F021E030E0FC016B
:100210003383228380E090E015C080915A06E82F56
:10022000F0E0E55AF94F998190838F5F80935A06E9
:1002300080937B0605C061E0CE0101960E9491008B
:1002400081E090E00F90DF91CF910895089580E0D4
:1002500090E008958EBD0DB407FEFDCF0895CF93B5
:10026000DF93EC018FEF8EBD4FEF8F8198859C015E
:100270002F5F3F4F38872F838130924028F40DB491
:1002800007FEFDCF4EBDF1CF0DB407FEFDCF61E0FF
:100290008AE00E94760A8FEF0E942A011E82DF9177
:1002A000CF910895CF93DF93D82F60E089E00E942B
:1002B000760AC8E060E08AE00E94760A6D2F6078D6
:1002C00088E00E94760ADD0F61E08AE00E94760AEB
:1002D000C15081F7DF91CF9108954F925F926F9255
:1002E0007F92AF92BF92CF92DF92EF92FF920F93E5
:1002F0001F93CF93DF93EC012A013B0159018E81BB
:10030000882379F0488159816A817B81441655069A
:100310006606770631F42F813885A216B30608F0F9
:100320006CC0488259826A827B829B85933039F007
:1003300099E0440C551C661C771C9A95D1F78823CC
:1003400019F0CE010E942F0160E08AE00E94760A37
:100350000E94C20A6B018FEF0E942A018EB58F3F67
:1003600039F00E94C20A6C197D096D32714098F310
:1003700081E50E942A0188E1C82ED12CD301C20157
:100380000C2C04C0B695A795979587950A94D2F73B
:100390000E942A0188E0C81AD10888EFC8168FEF9A
:1003A000D80661F78FEF0E942A01D12C8FEF0E94AF
:1003B0002A018EB587FF07C08FEFD81611F0D394AE
:1003C000F5CF83E014C08111FCCF0E94C20A6B01FB
:1003D0008FEF0E942A018EB58F3F09F04EC00E9418
:1003E000C20A6C197D096D32714090F38DE08C83E7
:1003F0004AC018861F8281E08E838FEF8EBD2FEF5B
:100400008F8198858A159B0550F40DB407FEFDCFAA
:100410002EBD8F819885019698878F83F1CFC70174
:100420000197F8014FEF9F01201B310B2817390767
:1004300038F40DB407FEFDCF2EB521934EBDF3CF9A
:100440000DB407FEFDCF2EB5F801E80FF91F20838C
:100450008F819885E80EF91EF886EF8289858823BA
:1004600021F0E11482E0F80630F08E81882319F043
:10047000CE010E942F0181E007C08E3F09F4B9CF61
:1004800090E19C838D8380E0DF91CF911F910F914C
:10049000FF90EF90DF90CF90BF90AF907F906F90E4
:1004A0005F904F9008952F923F924F925F926F927C
:1004B0007F928F929F92AF92BF92CF92DF92EF92F4
:1004C000FF920F931F93CF93DF93CDB7DEB728979B
:1004D0000FB6F894DEBF0FBECDBF8C01DC011996BC
:1004E000CD90DD90ED90FC901C974A015B018C0C47
:1004F0009D1CAE1CBF1C11968D919D910D90BC91C1
:10050000A02D88159905AA05BB0510F480E0D8C078
:10051000D8015196ED91FC9152974080512C612C5D
:10052000712CC501B40129E096958795779567955B
:100530002A95D1F7A30192010E94B60D2D833E8327
:100540004F835887C701B60139E09695879577950F
:1005500067953A95D1F7A30192010E94B60DCD801F
:10056000DE80EF80F884C21AD30AE40AF50AF801A3
:1005700081869286A386B4868081982F9770923068
:1005800079F083FF0FC085809680A780B084C80C67
:10059000D91CEA1CFB1CF801C582D682E782F086D2
:1005A00081E08EC038014601570181149104A104F5
:1005B000B104B1F3D3011596CD90DD90ED90FC9090
:1005C00018975196ED91FC915297B2E0CB16D10459
:1005D000E104F10410F185819681A781B08502962E
:1005E000A11DB11DC816D906EA06FB06B0F4828922
:1005F000803209F041C026843784408851889601B2
:10060000220F331F220F331F317083899489B90160
:100610006C5F7F4F6130724098F080E090E0DC01C9
:10062000F30185839683A783B087F1E08F1A910841
:10063000A108B108892B8A2B8B2B09F0B6CF66CF86
:10064000B701A601B7E07695679557954795BA9596
:10065000D1F7420D531D641D751D14E0E12EF12CE0
:100660008E010F5F1F4F0E946D018823B1F28981B7
:100670009A81AB81BC81D4CF803179F69601220F6B
:10068000331F317077276F2D5E2D4D2D8685978511
:10069000A089B189480F591F6A1F7B1FA2E0EA2E6B
:1006A000F12C8E010F5F1F4F838994890E946D0189
:1006B000882309F4B2CF89819A81A0E0B0E0B0CF5D
:1006C00028960FB6F894DEBF0FBECDBFDF91CF9155
:1006D0001F910F91FF90EF90DF90CF90BF90AF9060
:1006E0009F908F907F906F905F904F903F902F9052
:1006F00008952F923F924F925F926F927F928F92C6
:100700009F92AF92BF92CF92DF92EF92FF920F93A0
:100710001F93CF93DF9300D000D000D0CDB7DEB7CA
:100720006C014B011A01A12CB12CA214B30408F0E6
:10073000A1C0D60119964D905D906D907C901C974C
:10074000F201F17080E092E08E1B9F0B91012A195B
:100750003B093E832D838217930710F49E838D837C
:10076000D60111964D915D916D917C9114972D81DB
:100770003E81C901A0E0B0E08A019B01041915097E
:1007800026093709081719072A073B0728F4CA0161
:10079000841995099E838D83D6018C91877099E089
:1007A00076946794579447949A95D1F751960D9102
:1007B0001C915297D801823039F457964D915D9132
:1007C0006D917C915A972CC0FC90D60115962D9175
:1007D0003D914D915C911897225031094109510981
:1007E000AF2DB0E00E94A30DD80119962D913D9137
:1007F0004D915C911C97260F371F481F591F298365
:100800003A834B835C838F2D90E00197092E000C77
:10081000AA0BBB0B482259226A227B22BA01A901EA
:10082000440D551D661D771DD80153966D907C9023
:1008300054972D813E81232B31F44D815E81141616
:100840001506D4F013C08D819E818E0F9F1F8130BD
:10085000924048F4ED80FE8084019F01C3010E9414
:100860006D018111EACF8FEF9FEF18C0ED81FE81FE
:10087000F7FDF9CFC50112C02D813E81A901330FCB
:10088000660B770BC6010E945302882361F32D810A
:100890003E81820E931EA20EB31E47CF26960FB640
:1008A000F894DEBF0FBECDBFDF91CF911F910F91A6
:1008B000FF90EF90DF90CF90BF90AF909F908F9080
:1008C0007F906F905F904F903F902F9008951F9270
:1008D0000F920FB60F9211242F933F938F939F93F4
:1008E000AF93BF9380912C0290912D02A0912E0284
:1008F000B0912F0230912B0223E0230F2D3720F4EB
:100900000196A11DB11D05C026E8230F0296A11D69
:10091000B11D20932B0280932C0290932D02A09363
:100920002E02B0932F028091270290912802A0916D
:100930002902B0912A020196A11DB11D80932702C0
:1009400090932802A0932902B0932A02BF91AF91FD
:100950009F918F913F912F910F900FBE0F901F90FD
:1009600018951F920F920FB60F9211242F933F9359
:100970004F935F936F937F938F939F93AF93BF93A7
:10098000EF93FF938091B900887F803609F49CC073
:1009900068F5883209F45BC090F4803109F454C0E2
:1009A00038F4882309F4F6C0883009F44DC0F6C045
:1009B000883109F44CC0803209F45DC0EFC0803446
:1009C00009F468C048F4803309F455C0883309F04D
:1009D000E5C080935606D8C0803509F44FC08835ED
:1009E00009F45DC0883409F0D9C0D6C0883909F44B
:1009F000C7C0A8F4883709F467C038F4883609F40A
:100A000063C0803709F460C0C9C0883809F4B8C031
:100A1000803909F45FC0803809F0C0C05BC0803BFA
:100A200009F486C038F4803A09F466C0883A09F4BB
:100A30007FC0B4C0803C09F4A7C0883C09F4A4C0BE
:100A4000883B09F48AC0AAC08091330610C09091F7
:100A5000550680915406981770F5E091550681E08F
:100A60008E0F80935506F0E0EC5CF94F8081809307
:100A7000BB0085EC86C0809356068EC0E09155067B
:100A800081E08E0F809355068091BB00F0E0EC5C16
:100A9000F94F808390915506809154066EC0E09185
:100AA000550681E08E0F809355068091BB00F0E0E3
:100AB000EC5CF94F80838091570681116DC081E015
:100AC0008093320684EA61C083E0809358061092D6
:100AD0002602CFCF80912602803208F051C0E091EB
:100AE000260281E08E0F809326028091BB00F0E009
:100AF000EA5FFD4F8083BDCF85EC8093BC001092F0
:100B0000580680912602803230F4E0912602F0E00F
:100B1000EA5FFD4F10826091260270E0E0910402CE
:100B2000F091050286E092E009951092260236C007
:100B300084E0809358061092030210920202E09122
:100B40000002F0910102099580910202811105C015
:100B500081E0809302021092E001E091030281E0C3
:100B60008E0F80930302F0E0E052FE4F808180936D
:100B7000BB009091030280910202981708F479CF8C
:100B800085E88093BC000AC085EC8093BC0010927D
:100B9000580604C0109256060E948700FF91EF91FC
:100BA000BF91AF919F918F917F916F915F914F9185
:100BB0003F912F910F900FBE0F901F9018951F928D
:100BC0000F920FB60F9211244F925F926F927F9205
:100BD0008F929F92AF92BF92EF92FF920F931F93CB
:100BE0002F933F934F935F936F937F938F939F9335
:100BF000AF93BF93EF93FF93CF93DF93CDB7DEB760
:100C00002897DEBFCDBF80916F008B7F80936F00F0
:100C10008091DE01823009F084C07894E090DC019C
:100C2000F090DD010091DA011091DB01F80186817D
:100C30009781A085B185892B8A2B8B2B51F548E0B4
:100C400050E0BE016F5F7F4FF801878590890E9459
:100C50007903089719F08FEF9FEF4CC044E050E004
:100C600069EC71E0CE0101960E94080E4D815E8113
:100C70006F817885F801892B29F446835783608733
:100C8000718707C0878590890E9453028111D7CF51
:100C9000E2CFF80187859089FC012185328531708A
:100CA00040E052E0421B530BF80186809780A084FD
:100CB000B1842A01612C712C84149504A604B70414
:100CC00008F4A401B7010E9479031816190694F4D8
:100CD0004C01092E000CAA08BB08F8014681578177
:100CE00060857185481959096A097B0946835783CC
:100CF00060877187F8942091DC013091DD0118162E
:100D0000190644F4820F931F9093D9018093D80160
:100D100081E005C03093D9012093D80183E080930E
:100D2000DE0128960FB6F894DEBF0FBECDBFDF916F
:100D3000CF91FF91EF91BF91AF919F918F917F9153
:100D40006F915F914F913F912F911F910F91FF9064
:100D5000EF90BF90AF909F908F907F906F905F903B
:100D60004F900F900FBE0F901F9018951F920F92EB
:100D70000FB60F9211242F933F938F939F93AF93AE
:100D8000BF93EF93FF93E091DA01F091DB0130978D
:100D900009F4D5C02091D6013091D7018091D401BA
:100DA0009091D5012817390708F44FC08091DE01D2
:100DB000813029F58091DC019091DD019093D7017C
:100DC0008093D6012091D8013091D9013093D5017B
:100DD0002093D4018053944019F480E392E002C040
:100DE00080E394E09093DD018093DC0182E08093C6
:100DF000DE0180916F00846080936F0026C0833095
:100E000079F480916F008D7F80936F00E091DA011B
:100E1000F091DB0112861092DB011092DA018FC093
:100E200086819781A085B185892B8A2B8B2B09F42C
:100E300086C083859485A585B6850196A11DB11DC3
:100E400083879487A587B6877AC0E091DA01F0910D
:100E5000DB018581E091D601F091D701803149F421
:100E60008181805890813296F093D701E093D6012A
:100E700006C08191F093D701E093D60190E05A9893
:100E80005C985B9A5B985B9A5B985C9A5B9A5B98C0
:100E90005B9A5B9887FF02C05C9A01C05C985B9A82
:100EA0005B9886FF02C05C9A01C05C985B9A5B9875
:100EB00085FF02C05C9A01C05C985B9A5B9884FFD6
:100EC00002C05C9A01C05C985B9A5B9883FF02C089
:100ED0005C9A01C05C985B9A5B9882FF02C05C9A46
:100EE00001C05C985B9A5B9881FF02C05C9A01C06C
:100EF0005C985B9A5B9880FF02C05C9A01C05C982A
:100F00005B9A5B9897FF02C05C9A01C05C985B9A01
:100F10005B9896FF02C05C9A01C05C985B9A5B98F4
:100F200095FF02C05C9A01C05C985B9A5B9894FF45
:100F300002C05C9A01C05C985B9A5B985A9AFF91D8
:100F4000EF91BF91AF919F918F913F912F910F9012
:100F50000FBE0F901F9018951F920F920FB60F9211
:100F600011240F931F932F933F934F935F936F938E
:100F70007F938F939F93AF93BF93CF93DF93EF9321
:100F8000FF932091D2013091D3018091D0019091B3
:100F9000D1014091300650913106F901E05DFD4FDD
:100FA000E901C05DDB4F2817390734F4BC016F50ED
:100FB0007109261737074CF4BC01640F751F605187
:100FC000710962177307C8F5840F982F921BA0E16F
:100FD000A91BB0E06091CE017091CF016A0F7B1F19
:100FE0006F707727640F751FE081F0E0FE2FEE270A
:100FF0008881E82B9E9FE0019F9FD00D1124FB016B
:10100000E05DFD4FE081F0E01E2F0027605D7B4F2B
:10101000FB018081B801682B6A9FC0016B9F900D16
:101020007A9F900D11248C0F9D1F692F66956695F0
:10103000969587959695879514C0E0819881892F1C
:1010400090E0DC0166E0B595A7956A95E1F7F4E0DC
:10105000EF9FB00111246A2B880F991F880F991FE9
:101060008E2B91E090937C0660937E0680937D06A4
:101070002F5F3F4F3093D3012093D20124173507C0
:1010800020F01092D3011092D201FF91EF91DF91E5
:10109000CF91BF91AF919F918F917F916F915F9110
:1010A0004F913F912F911F910F910F900FBE0F9075
:1010B0001F9018951F920F920FB60F9211241F9335
:1010C0002F933F934F935F936F937F938F939F9350
:1010D000AF93BF93CF93DF93EF93FF9380917C0601
:1010E000811140C060913006709131062091CE018F
:1010F0003091CF01A901460F571F8091D0019091E7
:10110000D101DC01A05DBB4FCC91FA01E05DFB4F4A
:10111000C083FC01E05DFD4F1081405D5D4FEA0141
:1011200018832F5F3F4F2031310528F43093CF01D2
:101130002093CE0104C01092CF011092CE012091D5
:1011400078002C93209179002083019686179707C9
:1011500028F49093D1018093D00104C01092D10162
:101160001092D001FF91EF91DF91CF91BF91AF919C
:101170009F918F917F916F915F914F913F912F91AF
:101180001F910F900FBE0F901F901895CF93DF9374
:10119000D82FC62F60E089E00E94760A8D2F0E942A
:1011A00052018C2F0E94520161E089E0DF91CF91C2
:1011B0000C94760A90E0FC01EC55FF4F2491FC0161
:1011C000E057FF4F8491882399F090E0880F991F92
:1011D000FC01EA57FF4FA591B491FC01E458FF4F81
:1011E000859194918FB7F894EC91E22BEC938FBF9B
:1011F0000895CF92DF92EF92FF920F931F93CF93B8
:10120000DF936C017A018B01C0E0D0E0CE15DF05E1
:1012100089F0D8016D918D01D601ED91FC9101907D
:10122000F081E02DC6010995892B11F47E0102C0E1
:101230002196ECCFC701DF91CF911F910F91FF90C5
:10124000EF90DF90CF900895FC01538D448D252FB2
:1012500030E0842F90E0821B930B541710F0CF9650
:10126000089501970895FC01918D828D981761F082
:10127000828DDF01A80FB11D5D968C91928D9F5FCD
:101280009F73928F90E008958FEF9FEF0895FC0178
:10129000918D828D981731F0828DE80FF11D858D2B
:1012A00090E008958FEF9FEF0895FC01918D228DBE
:1012B000892F90E0805C9F4F821B91098F73992743
:1012C000089586E896E00E94550921E0892B09F4EB
:1012D00020E0822F0895FC01848DDF01A80FB11D4D
:1012E000A35ABF4F2C91848D90E001968F7399275C
:1012F000848FA689B7892C93A089B1898C91806449
:101300008C93938D848D981306C00288F389E02D09
:1013100080818F7D80830895EF92FF920F931F93BA
:10132000CF93DF93EC0181E0888F9B8D8C8D981398
:1013300005C0E889F989808185FD24C0F62E0B8DD2
:1013400010E00F5F1F4F0F731127E02E8C8DE812F6
:101350000CC00FB607FCFACFE889F989808185FFB8
:10136000F5CFCE010E946B09F1CF8B8DFE01E80F06
:10137000F11DE35AFF4FF0820B8FEA89FB898081D0
:10138000806207C0EE89FF896083E889F9898081DE
:101390008064808381E090E0DF91CF911F910F9175
:1013A000FF90EF900895CF93DF93EC01888D882311
:1013B000C9F0EA89FB89808185FD05C0A889B989C2
:1013C0008C9186FD0FC00FB607FCF5CF808185FF9D
:1013D000F2CFA889B9898C9185FFEDCFCE010E940B
:1013E0006B09E7CFDF91CF91089580E090E0892BE2
:1013F00029F00E94610981110C94000008958E303B
:1014000008F08E5087702091000190E4299F900190
:101410001124822B80937C0080917A0080648093D9
:101420007A0080917A0086FDFCCF8091780020912F
:10143000790090E0922B08950E94FC0D1F920F926C
:101440000FB60F9211242F933F934F935F936F9397
:101450007F938F939F93AF93BF93EF93FF9386E810
:1014600096E00E946B09FF91EF91BF91AF919F9120
:101470008F917F916F915F914F913F912F910F903D
:101480000FBE0F901F9018951F920F920FB60F92DC
:1014900011242F938F939F93EF93FF93E0919606E0
:1014A000F09197068081E0919C06F0919D0682FD67
:1014B00012C0908180919F068F5F8F732091A0064C
:1014C000821751F0E0919F06F0E0EA57F94F958FAF
:1014D00080939F0601C08081FF91EF919F918F9132
:1014E0002F910F900FBE0F901F90189590E0FC0168
:1014F000E859FF4F3491FC01EC55FF4F2491FC015A
:10150000E057FF4FE491EE2309F43BC0332339F158
:10151000333091F038F43130A9F0323001F584B530
:101520008F7D12C0373091F03830A1F03430B9F4EB
:10153000809180008F7D03C0809180008F778093A1
:1015400080000DC084B58F7784BD09C08091B00044
:101550008F7703C08091B0008F7D8093B000F0E062
:10156000EE0FFF1FE458FF4FA591B4918FB7F89489
:10157000EC91611103C020952E2301C02E2B2C93DA
:101580008FBF08952FB7F89460912C0270912D02AF
:1015900080912E0290912F022FBF0895E6E8F6E089
:1015A0001382128288EE93E0A0E0B0E084839583FA
:1015B000A683B78329EA31E03183208325EC30E02C
:1015C0003587248724EC30E03787268720EC30E00D
:1015D000318B208B21EC30E0338B228B22EC30E0FE
:1015E000358B248B26EC30E0378B268B118E128EB8
:1015F000138E148EE3E2F7E01382128284839583C4
:10160000A683B7838BEB91E09183808308957894D0
:1016100084B5826084BD84B5816084BD85B58260F7
:1016200085BD85B5816085BD80916E0081608093A8
:101630006E00109281008091810082608093810011
:101640008091810081608093810080918000816021
:10165000809380008091B10084608093B10080917C
:10166000B00081608093B00080917A0084608093A4
:101670007A0080917A00826080937A0080917A006B
:10168000816080937A0080917A00806880937A00EC
:101690001092C100E0919606F091970682E0808357
:1016A000E0919206F09193061082E0919406F091F9
:1016B00095068FEC808310929E06E0919A06F09139
:1016C0009B0686E08083E0919806F09199068081E0
:1016D00080618083E0919806F0919906808188600E
:1016E0008083E0919806F0919906808180688083DC
:1016F000E0919806F091990680818F7D80838AE041
:101700000E94DA0889E00E94DA0888E00E94DA087C
:1017100060E089E00E94C6086AE38AE00E94C60889
:1017200067E08BE00E94C60861E08CE00E94C6087A
:1017300060E08FE00E94C60860E081E00E94C60879
:1017400060E082E00E94C60860E083E00E94C60874
:1017500060E084E00E94C60860E085E00E94C60860
:1017600060E086E00E94C60860E087E00E94C6084C
:1017700060E088E00E94C60880E10E94FF09BC0189
:10178000990F880B990B611571058105910511F071
:101790000E947B0D8CE08093B80082E00E94DA0802
:1017A00083E00E94DA0884E00E94DA0885E00E9463
:1017B000DA0861E082E00E94760A10926E001092D0
:1017C000000180917A0080937F0681E00E94FF09EA
:1017D000EC0180E890E0909331068093300680E938
:1017E000E0E3F4E0DF011D928A95E9F740E950E07B
:1017F00062E070E080E392E00E94010E83E080935B
:10180000B0008BE08093B1009E01A2EBBFEF0E947D
:10181000E70D2FEF33E040E050E00E94840DDA0145
:10182000C90188599F4FAF4FBF4F8093B30080913C
:101830007E00816080937E0010927C0010927B007D
:101840008FEE80937A0080917000816080937000A9
:10185000789411E022242A9454E3A52E56E0B52E64
:1018600065EE362E05EC70ED472E77E0572E612C95
:10187000712C88248394E4E09E2EC0917E06D0E0F3
:10188000DC2FCC2780917D06C82B80917C06882395
:1018900009F47CC06E01E12CF12C92E0CC0CDD1C33
:1018A000EE1CFF1C9A95D1F7E60110935906B0E69D
:1018B000B093800610925A0610927B0660E483E291
:1018C00097E00E94F700B60124E0769567952A9587
:1018D000E1F783E297E00E94F700B60134E0660F7B
:1018E000771F3A95E1F783E297E00E94F700809135
:1018F0007B06813208F042C0909158069111FCCFCE
:1019000062E0609358061093570620925606109294
:10191000550680935406ABE5B6E0E4E3F6E09E2F6F
:101920009A19981718F49D919193F9CF1092330654
:1019300080913306806C809333068091320681302B
:1019400069F410923206809133068093BB00809137
:10195000BC0083FDF8CF0093BC0002C03092BC00F5
:10196000809158068230E1F3809156068F3F31F026
:1019700080915606803211F08091560610925A06D8
:1019800010927B061092590610927C068091840674
:101990009091850601969093850680938406209108
:1019A0008206309183064091010150910201811518
:1019B000944084F42C173D0720F4D0938306C09301
:1019C0008206C417D50708F040C0D0930201C09327
:1019D00001013BC0241B350BC901330FAA0BBB0B04
:1019E0009C01AD01285E334041095109A7E0B0E0F8
:1019F0000E94A30DA30192010E94840D1093810601
:101A000083E0220F331F8A95E1F7E901C35FDE4FC0
:101A1000F0908106B8E0BF1560F0FE01EF0DF11DFA
:101A2000319760818F2D0E94C608F394F092810651
:101A3000EFCF1092850610928406109283061092C2
:101A4000820690920201809201010E94F50915CF51
:101A50008F929F92AF92BF92CF92DF92EF92FF92BE
:101A6000CF93DF93EC01688179818A819B81611535
:101A700071058105910521F464E279ED8BE597E02C
:101A80002DE133EF41E050E00E94840D49015A01FD
:101A90009B01AC01A7EAB1E40E94A30D6B017C019C
:101AA000ACEEB4EFA50194010E94B10DDC01CB01B5
:101AB0008C0D9D1DAE1DBF1DB7FF03C00197A10971
:101AC000B04888839983AA83BB83BC01CD019F77EB
:101AD000DF91CF91FF90EF90DF90CF90BF90AF90CC
:101AE0009F908F9008950E94280D089583E091E0C3
:101AF0000E94280D08956093030170930401809360
:101B00000501909306010895052E97FB1EF400949D
:101B10000E949B0D57FD07D00E94B60D07FC03D015
:101B20004EF40C949B0D50954095309521953F4F68
:101B30004F4F5F4F089590958095709561957F4FB9
:101B40008F4F9F4F08950E94D80DA59F900DB49F71
:101B5000900DA49F800D911D11240895B7FF0C9442
:101B6000A30D0E94A30D821B930B0895A1E21A2ED0
:101B7000AA1BBB1BFD010DC0AA1FBB1FEE1FFF1F31
:101B8000A217B307E407F50720F0A21BB30BE40B81
:101B9000F50B661F771F881F991F1A9469F76095C8
:101BA0007095809590959B01AC01BD01CF01089582
:101BB000A29FB001B39FC001A39F700D811D11248E
:101BC000911DB29F700D811D1124911D08950E94D9
:101BD000D80D332312F48A1B9B0B0C94F10D0E9439
:101BE000D80DB7FF0895821B930B0895EE0FFF1FCA
:101BF0000590F491E02D099481E090E0F8940C9424
:101C0000160EDC0101C06D9341505040E0F708957D
:101C1000FB01DC014150504030F08D910190801962
:101C200019F40020B9F7881B990B0895F894FFCF99
:101C3000010F2701000000080009000A0000000051
:101C40000000000000004000404000000000600074
:101C500060604000004070607860604000607870B4
:101C60007E70784070607870707C70707078707C76
:101C7000787078607E7C787E707C7E7C700000005E
:101C80000000000000000000000000000000000054
:101C90000000000000000000000000000000000044
:101CA0000000000000000000000000000000000034
:101CB0000000000000000000000000000000000024
:101CC0000000000000000000000000000000000014
:101CD0000000000000000000008C09F9082409D36E
:101CE0000955093309470900000000F700C700271C
:0E1CF00001B900C000BD00BA0064617461005B
:00000001FF
